{
  "_format": "hh-sol-artifact-1",
  "contractName": "Event",
  "sourceName": "contracts/Event.sol",
  "abi": [
    {
      "inputs": [],
      "stateMutability": "nonpayable",
      "type": "constructor"
    },
    {
      "anonymous": false,
      "inputs": [
        {
          "indexed": true,
          "internalType": "address",
          "name": "owner",
          "type": "address"
        },
        {
          "indexed": true,
          "internalType": "address",
          "name": "approved",
          "type": "address"
        },
        {
          "indexed": true,
          "internalType": "uint256",
          "name": "tokenId",
          "type": "uint256"
        }
      ],
      "name": "Approval",
      "type": "event"
    },
    {
      "anonymous": false,
      "inputs": [
        {
          "indexed": true,
          "internalType": "address",
          "name": "owner",
          "type": "address"
        },
        {
          "indexed": true,
          "internalType": "address",
          "name": "operator",
          "type": "address"
        },
        {
          "indexed": false,
          "internalType": "bool",
          "name": "approved",
          "type": "bool"
        }
      ],
      "name": "ApprovalForAll",
      "type": "event"
    },
    {
      "anonymous": false,
      "inputs": [
        {
          "indexed": true,
          "internalType": "bytes32",
          "name": "role",
          "type": "bytes32"
        },
        {
          "indexed": true,
          "internalType": "bytes32",
          "name": "previousAdminRole",
          "type": "bytes32"
        },
        {
          "indexed": true,
          "internalType": "bytes32",
          "name": "newAdminRole",
          "type": "bytes32"
        }
      ],
      "name": "RoleAdminChanged",
      "type": "event"
    },
    {
      "anonymous": false,
      "inputs": [
        {
          "indexed": true,
          "internalType": "bytes32",
          "name": "role",
          "type": "bytes32"
        },
        {
          "indexed": true,
          "internalType": "address",
          "name": "account",
          "type": "address"
        },
        {
          "indexed": true,
          "internalType": "address",
          "name": "sender",
          "type": "address"
        }
      ],
      "name": "RoleGranted",
      "type": "event"
    },
    {
      "anonymous": false,
      "inputs": [
        {
          "indexed": true,
          "internalType": "bytes32",
          "name": "role",
          "type": "bytes32"
        },
        {
          "indexed": true,
          "internalType": "address",
          "name": "account",
          "type": "address"
        },
        {
          "indexed": true,
          "internalType": "address",
          "name": "sender",
          "type": "address"
        }
      ],
      "name": "RoleRevoked",
      "type": "event"
    },
    {
      "anonymous": false,
      "inputs": [
        {
          "indexed": true,
          "internalType": "address",
          "name": "from",
          "type": "address"
        },
        {
          "indexed": true,
          "internalType": "address",
          "name": "to",
          "type": "address"
        },
        {
          "indexed": true,
          "internalType": "uint256",
          "name": "tokenId",
          "type": "uint256"
        }
      ],
      "name": "Transfer",
      "type": "event"
    },
    {
      "inputs": [],
      "name": "ARTIST_ROLE",
      "outputs": [
        {
          "internalType": "bytes32",
          "name": "",
          "type": "bytes32"
        }
      ],
      "stateMutability": "view",
      "type": "function"
    },
    {
      "inputs": [],
      "name": "DEFAULT_ADMIN_ROLE",
      "outputs": [
        {
          "internalType": "bytes32",
          "name": "",
          "type": "bytes32"
        }
      ],
      "stateMutability": "view",
      "type": "function"
    },
    {
      "inputs": [],
      "name": "FACILITATOR_ROLE",
      "outputs": [
        {
          "internalType": "bytes32",
          "name": "",
          "type": "bytes32"
        }
      ],
      "stateMutability": "view",
      "type": "function"
    },
    {
      "inputs": [],
      "name": "VENUE_ROLE",
      "outputs": [
        {
          "internalType": "bytes32",
          "name": "",
          "type": "bytes32"
        }
      ],
      "stateMutability": "view",
      "type": "function"
    },
    {
      "inputs": [
        {
          "internalType": "address",
          "name": "to",
          "type": "address"
        },
        {
          "internalType": "uint256",
          "name": "tokenId",
          "type": "uint256"
        }
      ],
      "name": "approve",
      "outputs": [],
      "stateMutability": "nonpayable",
      "type": "function"
    },
    {
      "inputs": [],
      "name": "artistAddress",
      "outputs": [
        {
          "internalType": "address payable",
          "name": "",
          "type": "address"
        }
      ],
      "stateMutability": "view",
      "type": "function"
    },
    {
      "inputs": [],
      "name": "artistCut",
      "outputs": [
        {
          "internalType": "uint256",
          "name": "",
          "type": "uint256"
        }
      ],
      "stateMutability": "view",
      "type": "function"
    },
    {
      "inputs": [],
      "name": "artistWithdrawal",
      "outputs": [],
      "stateMutability": "nonpayable",
      "type": "function"
    },
    {
      "inputs": [
        {
          "internalType": "address",
          "name": "owner",
          "type": "address"
        }
      ],
      "name": "balanceOf",
      "outputs": [
        {
          "internalType": "uint256",
          "name": "",
          "type": "uint256"
        }
      ],
      "stateMutability": "view",
      "type": "function"
    },
    {
      "inputs": [],
      "name": "capacity",
      "outputs": [
        {
          "internalType": "uint256",
          "name": "",
          "type": "uint256"
        }
      ],
      "stateMutability": "view",
      "type": "function"
    },
    {
      "inputs": [],
      "name": "createEvent",
      "outputs": [
        {
          "internalType": "address",
          "name": "",
          "type": "address"
        }
      ],
      "stateMutability": "nonpayable",
      "type": "function"
    },
    {
      "inputs": [],
      "name": "endingBlock",
      "outputs": [
        {
          "internalType": "uint256",
          "name": "",
          "type": "uint256"
        }
      ],
      "stateMutability": "view",
      "type": "function"
    },
    {
      "inputs": [],
      "name": "facilitatorAddress",
      "outputs": [
        {
          "internalType": "address payable",
          "name": "",
          "type": "address"
        }
      ],
      "stateMutability": "view",
      "type": "function"
    },
    {
      "inputs": [],
      "name": "facilitatorWithdrawal",
      "outputs": [],
      "stateMutability": "nonpayable",
      "type": "function"
    },
    {
      "inputs": [
        {
          "internalType": "uint256",
          "name": "tokenId",
          "type": "uint256"
        }
      ],
      "name": "getApproved",
      "outputs": [
        {
          "internalType": "address",
          "name": "",
          "type": "address"
        }
      ],
      "stateMutability": "view",
      "type": "function"
    },
    {
      "inputs": [
        {
          "internalType": "bytes32",
          "name": "role",
          "type": "bytes32"
        }
      ],
      "name": "getRoleAdmin",
      "outputs": [
        {
          "internalType": "bytes32",
          "name": "",
          "type": "bytes32"
        }
      ],
      "stateMutability": "view",
      "type": "function"
    },
    {
      "inputs": [
        {
          "internalType": "bytes32",
          "name": "role",
          "type": "bytes32"
        },
        {
          "internalType": "address",
          "name": "account",
          "type": "address"
        }
      ],
      "name": "grantRole",
      "outputs": [],
      "stateMutability": "nonpayable",
      "type": "function"
    },
    {
      "inputs": [
        {
          "internalType": "bytes32",
          "name": "role",
          "type": "bytes32"
        },
        {
          "internalType": "address",
          "name": "account",
          "type": "address"
        }
      ],
      "name": "hasRole",
      "outputs": [
        {
          "internalType": "bool",
          "name": "",
          "type": "bool"
        }
      ],
      "stateMutability": "view",
      "type": "function"
    },
    {
      "inputs": [
        {
          "internalType": "uint256",
          "name": "_capacity",
          "type": "uint256"
        },
        {
          "internalType": "uint256",
          "name": "_price",
          "type": "uint256"
        },
        {
          "internalType": "uint256",
          "name": "_artistCut",
          "type": "uint256"
        },
        {
          "internalType": "uint256",
          "name": "_venueCut",
          "type": "uint256"
        },
        {
          "internalType": "uint256",
          "name": "_resaleRoyalty",
          "type": "uint256"
        },
        {
          "internalType": "uint256",
          "name": "_maxPerAddress",
          "type": "uint256"
        },
        {
          "internalType": "address payable",
          "name": "_artistAddress",
          "type": "address"
        },
        {
          "internalType": "address payable",
          "name": "_venueAddress",
          "type": "address"
        },
        {
          "internalType": "address payable",
          "name": "_facilitatorAddress",
          "type": "address"
        },
        {
          "internalType": "string",
          "name": "_name",
          "type": "string"
        },
        {
          "internalType": "string",
          "name": "_symbol",
          "type": "string"
        }
      ],
      "name": "initialize",
      "outputs": [],
      "stateMutability": "nonpayable",
      "type": "function"
    },
    {
      "inputs": [
        {
          "internalType": "address",
          "name": "owner",
          "type": "address"
        },
        {
          "internalType": "address",
          "name": "operator",
          "type": "address"
        }
      ],
      "name": "isApprovedForAll",
      "outputs": [
        {
          "internalType": "bool",
          "name": "",
          "type": "bool"
        }
      ],
      "stateMutability": "view",
      "type": "function"
    },
    {
      "inputs": [],
      "name": "logOwner",
      "outputs": [],
      "stateMutability": "view",
      "type": "function"
    },
    {
      "inputs": [],
      "name": "maxPerAddress",
      "outputs": [
        {
          "internalType": "uint256",
          "name": "",
          "type": "uint256"
        }
      ],
      "stateMutability": "view",
      "type": "function"
    },
    {
      "inputs": [
        {
          "internalType": "uint256",
          "name": "mintAmount",
          "type": "uint256"
        }
      ],
      "name": "mint",
      "outputs": [],
      "stateMutability": "payable",
      "type": "function"
    },
    {
      "inputs": [],
      "name": "name",
      "outputs": [
        {
          "internalType": "string",
          "name": "",
          "type": "string"
        }
      ],
      "stateMutability": "view",
      "type": "function"
    },
    {
      "inputs": [
        {
          "internalType": "uint256",
          "name": "tokenId",
          "type": "uint256"
        }
      ],
      "name": "ownerOf",
      "outputs": [
        {
          "internalType": "address",
          "name": "",
          "type": "address"
        }
      ],
      "stateMutability": "view",
      "type": "function"
    },
    {
      "inputs": [],
      "name": "price",
      "outputs": [
        {
          "internalType": "uint256",
          "name": "",
          "type": "uint256"
        }
      ],
      "stateMutability": "view",
      "type": "function"
    },
    {
      "inputs": [
        {
          "internalType": "bytes32",
          "name": "role",
          "type": "bytes32"
        },
        {
          "internalType": "address",
          "name": "account",
          "type": "address"
        }
      ],
      "name": "renounceRole",
      "outputs": [],
      "stateMutability": "nonpayable",
      "type": "function"
    },
    {
      "inputs": [],
      "name": "resaleRoyalty",
      "outputs": [
        {
          "internalType": "uint256",
          "name": "",
          "type": "uint256"
        }
      ],
      "stateMutability": "view",
      "type": "function"
    },
    {
      "inputs": [
        {
          "internalType": "bytes32",
          "name": "role",
          "type": "bytes32"
        },
        {
          "internalType": "address",
          "name": "account",
          "type": "address"
        }
      ],
      "name": "revokeRole",
      "outputs": [],
      "stateMutability": "nonpayable",
      "type": "function"
    },
    {
      "inputs": [
        {
          "internalType": "address",
          "name": "from",
          "type": "address"
        },
        {
          "internalType": "address",
          "name": "to",
          "type": "address"
        },
        {
          "internalType": "uint256",
          "name": "tokenId",
          "type": "uint256"
        }
      ],
      "name": "safeTransferFrom",
      "outputs": [],
      "stateMutability": "nonpayable",
      "type": "function"
    },
    {
      "inputs": [
        {
          "internalType": "address",
          "name": "from",
          "type": "address"
        },
        {
          "internalType": "address",
          "name": "to",
          "type": "address"
        },
        {
          "internalType": "uint256",
          "name": "tokenId",
          "type": "uint256"
        },
        {
          "internalType": "bytes",
          "name": "_data",
          "type": "bytes"
        }
      ],
      "name": "safeTransferFrom",
      "outputs": [],
      "stateMutability": "nonpayable",
      "type": "function"
    },
    {
      "inputs": [
        {
          "internalType": "address",
          "name": "operator",
          "type": "address"
        },
        {
          "internalType": "bool",
          "name": "approved",
          "type": "bool"
        }
      ],
      "name": "setApprovalForAll",
      "outputs": [],
      "stateMutability": "nonpayable",
      "type": "function"
    },
    {
      "inputs": [
        {
          "internalType": "uint256",
          "name": "blockNumber",
          "type": "uint256"
        }
      ],
      "name": "setEndingblock",
      "outputs": [],
      "stateMutability": "nonpayable",
      "type": "function"
    },
    {
      "inputs": [
        {
          "internalType": "uint256",
          "name": "blockNumber",
          "type": "uint256"
        }
      ],
      "name": "setStartingblock",
      "outputs": [],
      "stateMutability": "nonpayable",
      "type": "function"
    },
    {
      "inputs": [],
      "name": "startingBlock",
      "outputs": [
        {
          "internalType": "uint256",
          "name": "",
          "type": "uint256"
        }
      ],
      "stateMutability": "view",
      "type": "function"
    },
    {
      "inputs": [
        {
          "internalType": "bytes4",
          "name": "interfaceId",
          "type": "bytes4"
        }
      ],
      "name": "supportsInterface",
      "outputs": [
        {
          "internalType": "bool",
          "name": "",
          "type": "bool"
        }
      ],
      "stateMutability": "view",
      "type": "function"
    },
    {
      "inputs": [],
      "name": "symbol",
      "outputs": [
        {
          "internalType": "string",
          "name": "",
          "type": "string"
        }
      ],
      "stateMutability": "view",
      "type": "function"
    },
    {
      "inputs": [
        {
          "internalType": "uint256",
          "name": "index",
          "type": "uint256"
        }
      ],
      "name": "tokenByIndex",
      "outputs": [
        {
          "internalType": "uint256",
          "name": "",
          "type": "uint256"
        }
      ],
      "stateMutability": "view",
      "type": "function"
    },
    {
      "inputs": [
        {
          "internalType": "address",
          "name": "owner",
          "type": "address"
        },
        {
          "internalType": "uint256",
          "name": "index",
          "type": "uint256"
        }
      ],
      "name": "tokenOfOwnerByIndex",
      "outputs": [
        {
          "internalType": "uint256",
          "name": "",
          "type": "uint256"
        }
      ],
      "stateMutability": "view",
      "type": "function"
    },
    {
      "inputs": [
        {
          "internalType": "uint256",
          "name": "tokenId",
          "type": "uint256"
        }
      ],
      "name": "tokenURI",
      "outputs": [
        {
          "internalType": "string",
          "name": "",
          "type": "string"
        }
      ],
      "stateMutability": "view",
      "type": "function"
    },
    {
      "inputs": [],
      "name": "totalSupply",
      "outputs": [
        {
          "internalType": "uint256",
          "name": "",
          "type": "uint256"
        }
      ],
      "stateMutability": "view",
      "type": "function"
    },
    {
      "inputs": [
        {
          "internalType": "address",
          "name": "from",
          "type": "address"
        },
        {
          "internalType": "address",
          "name": "to",
          "type": "address"
        },
        {
          "internalType": "uint256",
          "name": "tokenId",
          "type": "uint256"
        }
      ],
      "name": "transferFrom",
      "outputs": [],
      "stateMutability": "nonpayable",
      "type": "function"
    },
    {
      "inputs": [],
      "name": "venueAddress",
      "outputs": [
        {
          "internalType": "address payable",
          "name": "",
          "type": "address"
        }
      ],
      "stateMutability": "view",
      "type": "function"
    },
    {
      "inputs": [],
      "name": "venueCut",
      "outputs": [
        {
          "internalType": "uint256",
          "name": "",
          "type": "uint256"
        }
      ],
      "stateMutability": "view",
      "type": "function"
    },
    {
      "inputs": [],
      "name": "venueWithdrawal",
      "outputs": [],
      "stateMutability": "nonpayable",
      "type": "function"
    }
  ],
  "bytecode": "0x60806040523480156200001157600080fd5b50600060019054906101000a900460ff166200003c5760008054906101000a900460ff16156200004d565b6200004c6200012e60201b60201c565b5b6200008f576040517f08c379a000000000000000000000000000000000000000000000000000000000815260040162000086906200038c565b60405180910390fd5b60008060019054906101000a900460ff161590508015620000e0576001600060016101000a81548160ff02191690831515021790555060016000806101000a81548160ff0219169083151502179055505b620000f06200014c60201b60201c565b620001056000801b33620001a060201b60201c565b8015620001275760008060016101000a81548160ff0219169083151502179055505b506200047f565b60006200014630620001b660201b62001c6f1760201c565b15905090565b600060019054906101000a900460ff166200019e576040517f08c379a00000000000000000000000000000000000000000000000000000000081526004016200019590620003ae565b60405180910390fd5b565b620001b28282620001d960201b60201c565b5050565b6000808273ffffffffffffffffffffffffffffffffffffffff163b119050919050565b620001eb8282620002cb60201b60201c565b620002c757600160c9600084815260200190815260200160002060000160008373ffffffffffffffffffffffffffffffffffffffff1673ffffffffffffffffffffffffffffffffffffffff16815260200190815260200160002060006101000a81548160ff0219169083151502179055506200026c6200033660201b60201c565b73ffffffffffffffffffffffffffffffffffffffff168173ffffffffffffffffffffffffffffffffffffffff16837f2f8788117e7eff1d82e926ec794901d17c78024a50270940304540a733656f0d60405160405180910390a45b5050565b600060c9600084815260200190815260200160002060000160008373ffffffffffffffffffffffffffffffffffffffff1673ffffffffffffffffffffffffffffffffffffffff16815260200190815260200160002060009054906101000a900460ff16905092915050565b600033905090565b60006200034d602e83620003d0565b91506200035a82620003e1565b604082019050919050565b600062000374602b83620003d0565b9150620003818262000430565b604082019050919050565b60006020820190508181036000830152620003a7816200033e565b9050919050565b60006020820190508181036000830152620003c98162000365565b9050919050565b600082825260208201905092915050565b7f496e697469616c697a61626c653a20636f6e747261637420697320616c72656160008201527f647920696e697469616c697a6564000000000000000000000000000000000000602082015250565b7f496e697469616c697a61626c653a20636f6e7472616374206973206e6f74206960008201527f6e697469616c697a696e67000000000000000000000000000000000000000000602082015250565b615aab806200048f6000396000f3fe6080604052600436106102725760003560e01c806370a082311161014f578063a966a0df116100c1578063cf6d5a001161007a578063cf6d5a0014610947578063d547741f1461095e578063d7eb3f3a14610987578063d91c98d3146109b2578063e985e9c5146109dd578063f63655d314610a1a57610272565b8063a966a0df1461084b578063b13f0f3e14610876578063b33eb0a01461088d578063b88d4fde146108b8578063c42ece9f146108e1578063c87b56dd1461090a57610272565b806395d89b411161011357806395d89b411461075a578063a035b1fe14610785578063a0712d68146107b0578063a217fddf146107cc578063a22cb465146107f7578063a7302b071461082057610272565b806370a082311461068757806377f508bb146106c45780637b1f337d146106db5780638c4938e71461070657806391d148541461071d57610272565b80632f745c59116101e85780635c7e688f116101ac5780635c7e688f146105735780635cfc1a511461059e5780636352211e146105c9578063639814e01461060657806368b0f1bb1461063157806369ba4f681461065c57610272565b80632f745c591461047e57806336568abe146104bb5780633a504131146104e457806342842e0e1461050d5780634f6ccce71461053657610272565b806318160ddd1161023a57806318160ddd1461036e57806323b872dd1461039957806323d58591146103c2578063248a9ca3146103ed57806329f763a21461042a5780632f2ff15d1461045557610272565b806301ffc9a71461027757806306fdde03146102b4578063081812fc146102df578063095ea7b31461031c57806312947be714610345575b600080fd5b34801561028357600080fd5b5061029e60048036038101906102999190613fb4565b610a45565b6040516102ab9190614809565b60405180910390f35b3480156102c057600080fd5b506102c9610a57565b6040516102d6919061483f565b60405180910390f35b3480156102eb57600080fd5b5061030660048036038101906103019190614006565b610ae9565b6040516103139190614787565b60405180910390f35b34801561032857600080fd5b50610343600480360381019061033e9190613f13565b610b6e565b005b34801561035157600080fd5b5061036c60048036038101906103679190614006565b610c86565b005b34801561037a57600080fd5b50610383610d23565b6040516103909190614d01565b60405180910390f35b3480156103a557600080fd5b506103c060048036038101906103bb9190613e0d565b610d30565b005b3480156103ce57600080fd5b506103d7610d90565b6040516103e491906147a2565b60405180910390f35b3480156103f957600080fd5b50610414600480360381019061040f9190613f4f565b610db7565b6040516104219190614824565b60405180910390f35b34801561043657600080fd5b5061043f610dd7565b60405161044c9190614824565b60405180910390f35b34801561046157600080fd5b5061047c60048036038101906104779190613f78565b610dde565b005b34801561048a57600080fd5b506104a560048036038101906104a09190613f13565b610e07565b6040516104b29190614d01565b60405180910390f35b3480156104c757600080fd5b506104e260048036038101906104dd9190613f78565b610eac565b005b3480156104f057600080fd5b5061050b6004803603810190610506919061402f565b610f2f565b005b34801561051957600080fd5b50610534600480360381019061052f9190613e0d565b61115d565b005b34801561054257600080fd5b5061055d60048036038101906105589190614006565b61117d565b60405161056a9190614d01565b60405180910390f35b34801561057f57600080fd5b50610588611214565b6040516105959190614d01565b60405180910390f35b3480156105aa57600080fd5b506105b361121a565b6040516105c09190614d01565b60405180910390f35b3480156105d557600080fd5b506105f060048036038101906105eb9190614006565b611220565b6040516105fd9190614787565b60405180910390f35b34801561061257600080fd5b5061061b6112d2565b6040516106289190614d01565b60405180910390f35b34801561063d57600080fd5b506106466112d9565b6040516106539190614d01565b60405180910390f35b34801561066857600080fd5b506106716112df565b60405161067e91906147a2565b60405180910390f35b34801561069357600080fd5b506106ae60048036038101906106a99190613da8565b611306565b6040516106bb9190614d01565b60405180910390f35b3480156106d057600080fd5b506106d96113be565b005b3480156106e757600080fd5b506106f0611488565b6040516106fd9190614d01565b60405180910390f35b34801561071257600080fd5b5061071b61148f565b005b34801561072957600080fd5b50610744600480360381019061073f9190613f78565b611559565b6040516107519190614809565b60405180910390f35b34801561076657600080fd5b5061076f6115c4565b60405161077c919061483f565b60405180910390f35b34801561079157600080fd5b5061079a611656565b6040516107a79190614d01565b60405180910390f35b6107ca60048036038101906107c59190614006565b61165c565b005b3480156107d857600080fd5b506107e16116b1565b6040516107ee9190614824565b60405180910390f35b34801561080357600080fd5b5061081e60048036038101906108199190613ed7565b6116b8565b005b34801561082c57600080fd5b506108356116ce565b6040516108429190614824565b60405180910390f35b34801561085757600080fd5b506108606116d5565b60405161086d9190614824565b60405180910390f35b34801561088257600080fd5b5061088b6116dc565b005b34801561089957600080fd5b506108a26118b2565b6040516108af9190614787565b60405180910390f35b3480156108c457600080fd5b506108df60048036038101906108da9190613e5c565b61190e565b005b3480156108ed57600080fd5b5061090860048036038101906109039190614006565b611970565b005b34801561091657600080fd5b50610931600480360381019061092c9190614006565b611a0d565b60405161093e919061483f565b60405180910390f35b34801561095357600080fd5b5061095c611ab4565b005b34801561096a57600080fd5b5061098560048036038101906109809190613f78565b611b7e565b005b34801561099357600080fd5b5061099c611ba7565b6040516109a991906147a2565b60405180910390f35b3480156109be57600080fd5b506109c7611bce565b6040516109d49190614d01565b60405180910390f35b3480156109e957600080fd5b50610a0460048036038101906109ff9190613dd1565b611bd5565b604051610a119190614809565b60405180910390f35b348015610a2657600080fd5b50610a2f611c69565b604051610a3c9190614d01565b60405180910390f35b6000610a5082611c92565b9050919050565b606060658054610a6690614ff7565b80601f0160208091040260200160405190810160405280929190818152602001828054610a9290614ff7565b8015610adf5780601f10610ab457610100808354040283529160200191610adf565b820191906000526020600020905b815481529060010190602001808311610ac257829003601f168201915b5050505050905090565b6000610af482611d0c565b610b33576040517f08c379a0000000000000000000000000000000000000000000000000000000008152600401610b2a90614b21565b60405180910390fd5b6069600083815260200190815260200160002060009054906101000a900473ffffffffffffffffffffffffffffffffffffffff169050919050565b6000610b7982611220565b90508073ffffffffffffffffffffffffffffffffffffffff168373ffffffffffffffffffffffffffffffffffffffff161415610bea576040517f08c379a0000000000000000000000000000000000000000000000000000000008152600401610be190614bc1565b60405180910390fd5b8073ffffffffffffffffffffffffffffffffffffffff16610c09611d78565b73ffffffffffffffffffffffffffffffffffffffff161480610c385750610c3781610c32611d78565b611bd5565b5b610c77576040517f08c379a0000000000000000000000000000000000000000000000000000000008152600401610c6e90614a61565b60405180910390fd5b610c818383611d80565b505050565b60006101015414610ccc576040517f08c379a0000000000000000000000000000000000000000000000000000000008152600401610cc390614c81565b60405180910390fd5b610cd96000801b33611559565b610d18576040517f08c379a0000000000000000000000000000000000000000000000000000000008152600401610d0f90614b41565b60405180910390fd5b806101018190555050565b6000609980549050905090565b610d41610d3b611d78565b82611e39565b610d80576040517f08c379a0000000000000000000000000000000000000000000000000000000008152600401610d7790614c01565b60405180910390fd5b610d8b838383611f17565b505050565b61010560009054906101000a900473ffffffffffffffffffffffffffffffffffffffff1681565b600060c96000838152602001908152602001600020600101549050919050565b6000801b81565b610de782610db7565b610df881610df3611d78565b61217e565b610e02838361221b565b505050565b6000610e1283611306565b8210610e53576040517f08c379a0000000000000000000000000000000000000000000000000000000008152600401610e4a90614941565b60405180910390fd5b609760008473ffffffffffffffffffffffffffffffffffffffff1673ffffffffffffffffffffffffffffffffffffffff168152602001908152602001600020600083815260200190815260200160002054905092915050565b610eb4611d78565b73ffffffffffffffffffffffffffffffffffffffff168173ffffffffffffffffffffffffffffffffffffffff1614610f21576040517f08c379a0000000000000000000000000000000000000000000000000000000008152600401610f1890614ca1565b60405180910390fd5b610f2b82826122fc565b5050565b600060019054906101000a900460ff16610f575760008054906101000a900460ff1615610f60565b610f5f6123de565b5b610f9f576040517f08c379a0000000000000000000000000000000000000000000000000000000008152600401610f9690614ac1565b60405180910390fd5b60008060019054906101000a900460ff161590508015610fef576001600060016101000a81548160ff02191690831515021790555060016000806101000a81548160ff0219169083151502179055505b610ff983836123ef565b61100161244c565b61100961249d565b6110166000801b336124ee565b8b60fb819055508a60fc819055508960fd819055508860fe819055508760ff8190555086610100819055508561010360006101000a81548173ffffffffffffffffffffffffffffffffffffffff021916908373ffffffffffffffffffffffffffffffffffffffff1602179055508461010460006101000a81548173ffffffffffffffffffffffffffffffffffffffff021916908373ffffffffffffffffffffffffffffffffffffffff1602179055508361010560006101000a81548173ffffffffffffffffffffffffffffffffffffffff021916908373ffffffffffffffffffffffffffffffffffffffff1602179055506111146000801b87610dde565b6111216000801b86610dde565b61112e6000801b85610dde565b801561114f5760008060016101000a81548160ff0219169083151502179055505b505050505050505050505050565b6111788383836040518060200160405280600081525061190e565b505050565b6000611187610d23565b82106111c8576040517f08c379a00000000000000000000000000000000000000000000000000000000081526004016111bf90614c41565b60405180910390fd5b60998281548110611202577f4e487b7100000000000000000000000000000000000000000000000000000000600052603260045260246000fd5b90600052602060002001549050919050565b60fe5481565b60fb5481565b6000806067600084815260200190815260200160002060009054906101000a900473ffffffffffffffffffffffffffffffffffffffff169050600073ffffffffffffffffffffffffffffffffffffffff168173ffffffffffffffffffffffffffffffffffffffff1614156112c9576040517f08c379a00000000000000000000000000000000000000000000000000000000081526004016112c090614aa1565b60405180910390fd5b80915050919050565b6101005481565b60ff5481565b61010460009054906101000a900473ffffffffffffffffffffffffffffffffffffffff1681565b60008073ffffffffffffffffffffffffffffffffffffffff168273ffffffffffffffffffffffffffffffffffffffff161415611377576040517f08c379a000000000000000000000000000000000000000000000000000000000815260040161136e90614a81565b60405180910390fd5b606860008373ffffffffffffffffffffffffffffffffffffffff1673ffffffffffffffffffffffffffffffffffffffff168152602001908152602001600020549050919050565b6113cb6000801b33611559565b61140a576040517f08c379a000000000000000000000000000000000000000000000000000000000815260040161140190614ce1565b60405180910390fd5b600061010754905060006101078190555061010360009054906101000a900473ffffffffffffffffffffffffffffffffffffffff1673ffffffffffffffffffffffffffffffffffffffff166108fc829081150290604051600060405180830381858888f19350505050158015611484573d6000803e3d6000fd5b5050565b6101025481565b61149c6000801b33611559565b6114db576040517f08c379a00000000000000000000000000000000000000000000000000000000081526004016114d290614ce1565b60405180910390fd5b600061010854905060006101088190555061010360009054906101000a900473ffffffffffffffffffffffffffffffffffffffff1673ffffffffffffffffffffffffffffffffffffffff166108fc829081150290604051600060405180830381858888f19350505050158015611555573d6000803e3d6000fd5b5050565b600060c9600084815260200190815260200160002060000160008373ffffffffffffffffffffffffffffffffffffffff1673ffffffffffffffffffffffffffffffffffffffff16815260200190815260200160002060009054906101000a900460ff16905092915050565b6060606680546115d390614ff7565b80601f01602080910402602001604051908101604052809291908181526020018280546115ff90614ff7565b801561164c5780601f106116215761010080835404028352916020019161164c565b820191906000526020600020905b81548152906001019060200180831161162f57829003601f168201915b5050505050905090565b60fc5481565b611665816124fc565b60005b818110156116a557600061167a610d23565b905060fb5481101561169157611690338261270f565b5b50808061169d9061505a565b915050611668565b506116ae61272d565b50565b6000801b81565b6116ca6116c3611d78565b83836127fa565b5050565b6000801b81565b6000801b81565b6117276040518060400160405280600781526020017f61646d696e3a20000000000000000000000000000000000000000000000000008152506117226000801b33611559565b612967565b6117956040518060400160405280600881526020017f6172746973743a200000000000000000000000000000000000000000000000008152506117906000801b61010360009054906101000a900473ffffffffffffffffffffffffffffffffffffffff16611559565b612967565b6118036040518060400160405280600d81526020017f666163696c697461746f723a20000000000000000000000000000000000000008152506117fe6000801b61010560009054906101000a900473ffffffffffffffffffffffffffffffffffffffff16611559565b612967565b6118716040518060400160405280600781526020017f76656e75653a200000000000000000000000000000000000000000000000000081525061186c6000801b61010460009054906101000a900473ffffffffffffffffffffffffffffffffffffffff16611559565b612967565b6118b06040518060400160405280600b81526020017f6d736753656e6465723a2000000000000000000000000000000000000000000081525033612a03565b565b60006118c16000801b33611559565b611900576040517f08c379a00000000000000000000000000000000000000000000000000000000081526004016118f790614c21565b60405180910390fd5b61190930612a9f565b905090565b61191f611919611d78565b83611e39565b61195e576040517f08c379a000000000000000000000000000000000000000000000000000000000815260040161195590614c01565b60405180910390fd5b61196a84848484612b74565b50505050565b600061010254146119b6576040517f08c379a00000000000000000000000000000000000000000000000000000000081526004016119ad90614be1565b60405180910390fd5b6119c36000801b33611559565b611a02576040517f08c379a00000000000000000000000000000000000000000000000000000000081526004016119f990614921565b60405180910390fd5b806101028190555050565b6060611a1882611d0c565b611a57576040517f08c379a0000000000000000000000000000000000000000000000000000000008152600401611a4e90614b81565b60405180910390fd5b6000611a61612bd0565b90506000815111611a815760405180602001604052806000815250611aac565b80611a8b84612be7565b604051602001611a9c929190614729565b6040516020818303038152906040525b915050919050565b611ac16000801b33611559565b611b00576040517f08c379a0000000000000000000000000000000000000000000000000000000008152600401611af790614ce1565b60405180910390fd5b600061010654905060006101068190555061010360009054906101000a900473ffffffffffffffffffffffffffffffffffffffff1673ffffffffffffffffffffffffffffffffffffffff166108fc829081150290604051600060405180830381858888f19350505050158015611b7a573d6000803e3d6000fd5b5050565b611b8782610db7565b611b9881611b93611d78565b61217e565b611ba283836122fc565b505050565b61010360009054906101000a900473ffffffffffffffffffffffffffffffffffffffff1681565b6101015481565b6000606a60008473ffffffffffffffffffffffffffffffffffffffff1673ffffffffffffffffffffffffffffffffffffffff16815260200190815260200160002060008373ffffffffffffffffffffffffffffffffffffffff1673ffffffffffffffffffffffffffffffffffffffff16815260200190815260200160002060009054906101000a900460ff16905092915050565b60fd5481565b6000808273ffffffffffffffffffffffffffffffffffffffff163b119050919050565b60007f7965db0b000000000000000000000000000000000000000000000000000000007bffffffffffffffffffffffffffffffffffffffffffffffffffffffff1916827bffffffffffffffffffffffffffffffffffffffffffffffffffffffff19161480611d055750611d0482612d94565b5b9050919050565b60008073ffffffffffffffffffffffffffffffffffffffff166067600084815260200190815260200160002060009054906101000a900473ffffffffffffffffffffffffffffffffffffffff1673ffffffffffffffffffffffffffffffffffffffff1614159050919050565b600033905090565b816069600083815260200190815260200160002060006101000a81548173ffffffffffffffffffffffffffffffffffffffff021916908373ffffffffffffffffffffffffffffffffffffffff160217905550808273ffffffffffffffffffffffffffffffffffffffff16611df383611220565b73ffffffffffffffffffffffffffffffffffffffff167f8c5be1e5ebec7d5bd14f71427d1e84f3dd0314c0f7b2291e5b200ac8c7c3b92560405160405180910390a45050565b6000611e4482611d0c565b611e83576040517f08c379a0000000000000000000000000000000000000000000000000000000008152600401611e7a90614a21565b60405180910390fd5b6000611e8e83611220565b90508073ffffffffffffffffffffffffffffffffffffffff168473ffffffffffffffffffffffffffffffffffffffff161480611efd57508373ffffffffffffffffffffffffffffffffffffffff16611ee584610ae9565b73ffffffffffffffffffffffffffffffffffffffff16145b80611f0e5750611f0d8185611bd5565b5b91505092915050565b8273ffffffffffffffffffffffffffffffffffffffff16611f3782611220565b73ffffffffffffffffffffffffffffffffffffffff1614611f8d576040517f08c379a0000000000000000000000000000000000000000000000000000000008152600401611f8490614981565b60405180910390fd5b600073ffffffffffffffffffffffffffffffffffffffff168273ffffffffffffffffffffffffffffffffffffffff161415611ffd576040517f08c379a0000000000000000000000000000000000000000000000000000000008152600401611ff4906149c1565b60405180910390fd5b612008838383612e0e565b612013600082611d80565b6001606860008573ffffffffffffffffffffffffffffffffffffffff1673ffffffffffffffffffffffffffffffffffffffff16815260200190815260200160002060008282546120639190614ec7565b925050819055506001606860008473ffffffffffffffffffffffffffffffffffffffff1673ffffffffffffffffffffffffffffffffffffffff16815260200190815260200160002060008282546120ba9190614de6565b92505081905550816067600083815260200190815260200160002060006101000a81548173ffffffffffffffffffffffffffffffffffffffff021916908373ffffffffffffffffffffffffffffffffffffffff160217905550808273ffffffffffffffffffffffffffffffffffffffff168473ffffffffffffffffffffffffffffffffffffffff167fddf252ad1be2c89b69c2b068fc378daa952ba7f163c4a11628f55a4df523b3ef60405160405180910390a4612179838383612f22565b505050565b6121888282611559565b612217576121ad8173ffffffffffffffffffffffffffffffffffffffff166014612f27565b6121bb8360001c6020612f27565b6040516020016121cc92919061474d565b6040516020818303038152906040526040517f08c379a000000000000000000000000000000000000000000000000000000000815260040161220e919061483f565b60405180910390fd5b5050565b6122258282611559565b6122f857600160c9600084815260200190815260200160002060000160008373ffffffffffffffffffffffffffffffffffffffff1673ffffffffffffffffffffffffffffffffffffffff16815260200190815260200160002060006101000a81548160ff02191690831515021790555061229d611d78565b73ffffffffffffffffffffffffffffffffffffffff168173ffffffffffffffffffffffffffffffffffffffff16837f2f8788117e7eff1d82e926ec794901d17c78024a50270940304540a733656f0d60405160405180910390a45b5050565b6123068282611559565b156123da57600060c9600084815260200190815260200160002060000160008373ffffffffffffffffffffffffffffffffffffffff1673ffffffffffffffffffffffffffffffffffffffff16815260200190815260200160002060006101000a81548160ff02191690831515021790555061237f611d78565b73ffffffffffffffffffffffffffffffffffffffff168173ffffffffffffffffffffffffffffffffffffffff16837ff6391f5c32d9c69d2a47ea670b442974b53935d1edc7fd64eb21e047a839171b60405160405180910390a45b5050565b60006123e930611c6f565b15905090565b600060019054906101000a900460ff1661243e576040517f08c379a000000000000000000000000000000000000000000000000000000000815260040161243590614c61565b60405180910390fd5b6124488282613221565b5050565b600060019054906101000a900460ff1661249b576040517f08c379a000000000000000000000000000000000000000000000000000000000815260040161249290614c61565b60405180910390fd5b565b600060019054906101000a900460ff166124ec576040517f08c379a00000000000000000000000000000000000000000000000000000000081526004016124e390614c61565b60405180910390fd5b565b6124f8828261221b565b5050565b6000811161253f576040517f08c379a000000000000000000000000000000000000000000000000000000000815260040161253690614cc1565b60405180910390fd5b61010054811115612585576040517f08c379a000000000000000000000000000000000000000000000000000000000815260040161257c906148e1565b60405180910390fd5b60fb546125a282612594610d23565b6132a290919063ffffffff16565b11156125e3576040517f08c379a00000000000000000000000000000000000000000000000000000000081526004016125da90614ba1565b60405180910390fd5b346125f98260fc546132b890919063ffffffff16565b111561263a576040517f08c379a000000000000000000000000000000000000000000000000000000000815260040161263190614b61565b60405180910390fd5b60006101015411612680576040517f08c379a000000000000000000000000000000000000000000000000000000000815260040161267790614901565b60405180910390fd5b610101544310156126c6576040517f08c379a00000000000000000000000000000000000000000000000000000000081526004016126bd90614a01565b60405180910390fd5b6101025443111561270c576040517f08c379a000000000000000000000000000000000000000000000000000000000815260040161270390614b01565b60405180910390fd5b50565b6127298282604051806020016040528060008152506132ce565b5050565b61276a612758606461274a60fd54346132b890919063ffffffff16565b61332990919063ffffffff16565b610106546132a290919063ffffffff16565b610106819055506127ae61279c606461278e60fe54346132b890919063ffffffff16565b61332990919063ffffffff16565b610107546132a290919063ffffffff16565b610107819055506127f16127df60646127d1600f346132b890919063ffffffff16565b61332990919063ffffffff16565b610108546132a290919063ffffffff16565b61010881905550565b8173ffffffffffffffffffffffffffffffffffffffff168373ffffffffffffffffffffffffffffffffffffffff161415612869576040517f08c379a0000000000000000000000000000000000000000000000000000000008152600401612860906149e1565b60405180910390fd5b80606a60008573ffffffffffffffffffffffffffffffffffffffff1673ffffffffffffffffffffffffffffffffffffffff16815260200190815260200160002060008473ffffffffffffffffffffffffffffffffffffffff1673ffffffffffffffffffffffffffffffffffffffff16815260200190815260200160002060006101000a81548160ff0219169083151502179055508173ffffffffffffffffffffffffffffffffffffffff168373ffffffffffffffffffffffffffffffffffffffff167f17307eab39ab6107e8899845ad3d59bd9653f200f220920489ca2b5937696c318360405161295a9190614809565b60405180910390a3505050565b6129ff828260405160240161297d929190614891565b6040516020818303038152906040527fc3b55635000000000000000000000000000000000000000000000000000000007bffffffffffffffffffffffffffffffffffffffffffffffffffffffff19166020820180517bffffffffffffffffffffffffffffffffffffffffffffffffffffffff838183161783525050505061333f565b5050565b612a9b8282604051602401612a19929190614861565b6040516020818303038152906040527f319af333000000000000000000000000000000000000000000000000000000007bffffffffffffffffffffffffffffffffffffffffffffffffffffffff19166020820180517bffffffffffffffffffffffffffffffffffffffffffffffffffffffff838183161783525050505061333f565b5050565b60006040517f3d602d80600a3d3981f3363d3d373d3d3d363d7300000000000000000000000081528260601b60148201527f5af43d82803e903d91602b57fd5bf3000000000000000000000000000000000060288201526037816000f0915050600073ffffffffffffffffffffffffffffffffffffffff168173ffffffffffffffffffffffffffffffffffffffff161415612b6f576040517f08c379a0000000000000000000000000000000000000000000000000000000008152600401612b6690614a41565b60405180910390fd5b919050565b612b7f848484611f17565b612b8b84848484613368565b612bca576040517f08c379a0000000000000000000000000000000000000000000000000000000008152600401612bc190614961565b60405180910390fd5b50505050565b606060405180602001604052806000815250905090565b60606000821415612c2f576040518060400160405280600181526020017f30000000000000000000000000000000000000000000000000000000000000008152509050612d8f565b600082905060005b60008214612c61578080612c4a9061505a565b915050600a82612c5a9190614e3c565b9150612c37565b60008167ffffffffffffffff811115612ca3577f4e487b7100000000000000000000000000000000000000000000000000000000600052604160045260246000fd5b6040519080825280601f01601f191660200182016040528015612cd55781602001600182028036833780820191505090505b5090505b60008514612d8857600182612cee9190614ec7565b9150600a85612cfd91906150a3565b6030612d099190614de6565b60f81b818381518110612d45577f4e487b7100000000000000000000000000000000000000000000000000000000600052603260045260246000fd5b60200101907effffffffffffffffffffffffffffffffffffffffffffffffffffffffffffff1916908160001a905350600a85612d819190614e3c565b9450612cd9565b8093505050505b919050565b60007f780e9d63000000000000000000000000000000000000000000000000000000007bffffffffffffffffffffffffffffffffffffffffffffffffffffffff1916827bffffffffffffffffffffffffffffffffffffffffffffffffffffffff19161480612e075750612e06826134ff565b5b9050919050565b612e198383836135e1565b600073ffffffffffffffffffffffffffffffffffffffff168373ffffffffffffffffffffffffffffffffffffffff161415612e5c57612e57816135e6565b612e9b565b8173ffffffffffffffffffffffffffffffffffffffff168373ffffffffffffffffffffffffffffffffffffffff1614612e9a57612e99838261362f565b5b5b600073ffffffffffffffffffffffffffffffffffffffff168273ffffffffffffffffffffffffffffffffffffffff161415612ede57612ed98161379c565b612f1d565b8273ffffffffffffffffffffffffffffffffffffffff168273ffffffffffffffffffffffffffffffffffffffff1614612f1c57612f1b82826138df565b5b5b505050565b505050565b606060006002836002612f3a9190614e6d565b612f449190614de6565b67ffffffffffffffff811115612f83577f4e487b7100000000000000000000000000000000000000000000000000000000600052604160045260246000fd5b6040519080825280601f01601f191660200182016040528015612fb55781602001600182028036833780820191505090505b5090507f300000000000000000000000000000000000000000000000000000000000000081600081518110613013577f4e487b7100000000000000000000000000000000000000000000000000000000600052603260045260246000fd5b60200101907effffffffffffffffffffffffffffffffffffffffffffffffffffffffffffff1916908160001a9053507f78000000000000000000000000000000000000000000000000000000000000008160018151811061309d577f4e487b7100000000000000000000000000000000000000000000000000000000600052603260045260246000fd5b60200101907effffffffffffffffffffffffffffffffffffffffffffffffffffffffffffff1916908160001a905350600060018460026130dd9190614e6d565b6130e79190614de6565b90505b60018111156131d3577f3031323334353637383961626364656600000000000000000000000000000000600f86166010811061314f577f4e487b7100000000000000000000000000000000000000000000000000000000600052603260045260246000fd5b1a60f81b82828151811061318c577f4e487b7100000000000000000000000000000000000000000000000000000000600052603260045260246000fd5b60200101907effffffffffffffffffffffffffffffffffffffffffffffffffffffffffffff1916908160001a905350600485901c9450806131cc90614fcd565b90506130ea565b5060008414613217576040517f08c379a000000000000000000000000000000000000000000000000000000000815260040161320e906148c1565b60405180910390fd5b8091505092915050565b600060019054906101000a900460ff16613270576040517f08c379a000000000000000000000000000000000000000000000000000000000815260040161326790614c61565b60405180910390fd5b8160659080519060200190613286929190613ba2565b50806066908051906020019061329d929190613ba2565b505050565b600081836132b09190614de6565b905092915050565b600081836132c69190614e6d565b905092915050565b6132d8838361395e565b6132e56000848484613368565b613324576040517f08c379a000000000000000000000000000000000000000000000000000000000815260040161331b90614961565b60405180910390fd5b505050565b600081836133379190614e3c565b905092915050565b60008151905060006a636f6e736f6c652e6c6f679050602083016000808483855afa5050505050565b60006133898473ffffffffffffffffffffffffffffffffffffffff16611c6f565b156134f2578373ffffffffffffffffffffffffffffffffffffffff1663150b7a026133b2611d78565b8786866040518563ffffffff1660e01b81526004016133d494939291906147bd565b602060405180830381600087803b1580156133ee57600080fd5b505af192505050801561341f57506040513d601f19601f8201168201806040525081019061341c9190613fdd565b60015b6134a2573d806000811461344f576040519150601f19603f3d011682016040523d82523d6000602084013e613454565b606091505b5060008151141561349a576040517f08c379a000000000000000000000000000000000000000000000000000000000815260040161349190614961565b60405180910390fd5b805181602001fd5b63150b7a0260e01b7bffffffffffffffffffffffffffffffffffffffffffffffffffffffff1916817bffffffffffffffffffffffffffffffffffffffffffffffffffffffff1916149150506134f7565b600190505b949350505050565b60007f80ac58cd000000000000000000000000000000000000000000000000000000007bffffffffffffffffffffffffffffffffffffffffffffffffffffffff1916827bffffffffffffffffffffffffffffffffffffffffffffffffffffffff191614806135ca57507f5b5e139f000000000000000000000000000000000000000000000000000000007bffffffffffffffffffffffffffffffffffffffffffffffffffffffff1916827bffffffffffffffffffffffffffffffffffffffffffffffffffffffff1916145b806135da57506135d982613b38565b5b9050919050565b505050565b609980549050609a600083815260200190815260200160002081905550609981908060018154018082558091505060019003906000526020600020016000909190919091505550565b6000600161363c84611306565b6136469190614ec7565b905060006098600084815260200190815260200160002054905081811461372b576000609760008673ffffffffffffffffffffffffffffffffffffffff1673ffffffffffffffffffffffffffffffffffffffff168152602001908152602001600020600084815260200190815260200160002054905080609760008773ffffffffffffffffffffffffffffffffffffffff1673ffffffffffffffffffffffffffffffffffffffff168152602001908152602001600020600084815260200190815260200160002081905550816098600083815260200190815260200160002081905550505b6098600084815260200190815260200160002060009055609760008573ffffffffffffffffffffffffffffffffffffffff1673ffffffffffffffffffffffffffffffffffffffff16815260200190815260200160002060008381526020019081526020016000206000905550505050565b600060016099805490506137b09190614ec7565b90506000609a6000848152602001908152602001600020549050600060998381548110613806577f4e487b7100000000000000000000000000000000000000000000000000000000600052603260045260246000fd5b90600052602060002001549050806099838154811061384e577f4e487b7100000000000000000000000000000000000000000000000000000000600052603260045260246000fd5b906000526020600020018190555081609a600083815260200190815260200160002081905550609a60008581526020019081526020016000206000905560998054806138c3577f4e487b7100000000000000000000000000000000000000000000000000000000600052603160045260246000fd5b6001900381819060005260206000200160009055905550505050565b60006138ea83611306565b905081609760008573ffffffffffffffffffffffffffffffffffffffff1673ffffffffffffffffffffffffffffffffffffffff168152602001908152602001600020600083815260200190815260200160002081905550806098600084815260200190815260200160002081905550505050565b600073ffffffffffffffffffffffffffffffffffffffff168273ffffffffffffffffffffffffffffffffffffffff1614156139ce576040517f08c379a00000000000000000000000000000000000000000000000000000000081526004016139c590614ae1565b60405180910390fd5b6139d781611d0c565b15613a17576040517f08c379a0000000000000000000000000000000000000000000000000000000008152600401613a0e906149a1565b60405180910390fd5b613a2360008383612e0e565b6001606860008473ffffffffffffffffffffffffffffffffffffffff1673ffffffffffffffffffffffffffffffffffffffff1681526020019081526020016000206000828254613a739190614de6565b92505081905550816067600083815260200190815260200160002060006101000a81548173ffffffffffffffffffffffffffffffffffffffff021916908373ffffffffffffffffffffffffffffffffffffffff160217905550808273ffffffffffffffffffffffffffffffffffffffff16600073ffffffffffffffffffffffffffffffffffffffff167fddf252ad1be2c89b69c2b068fc378daa952ba7f163c4a11628f55a4df523b3ef60405160405180910390a4613b3460008383612f22565b5050565b60007f01ffc9a7000000000000000000000000000000000000000000000000000000007bffffffffffffffffffffffffffffffffffffffffffffffffffffffff1916827bffffffffffffffffffffffffffffffffffffffffffffffffffffffff1916149050919050565b828054613bae90614ff7565b90600052602060002090601f016020900481019282613bd05760008555613c17565b82601f10613be957805160ff1916838001178555613c17565b82800160010185558215613c17579182015b82811115613c16578251825591602001919060010190613bfb565b5b509050613c249190613c28565b5090565b5b80821115613c41576000816000905550600101613c29565b5090565b6000613c58613c5384614d41565b614d1c565b905082815260208101848484011115613c7057600080fd5b613c7b848285614f8b565b509392505050565b6000613c96613c9184614d72565b614d1c565b905082815260208101848484011115613cae57600080fd5b613cb9848285614f8b565b509392505050565b600081359050613cd0816159eb565b92915050565b600081359050613ce581615a02565b92915050565b600081359050613cfa81615a19565b92915050565b600081359050613d0f81615a30565b92915050565b600081359050613d2481615a47565b92915050565b600081519050613d3981615a47565b92915050565b600082601f830112613d5057600080fd5b8135613d60848260208601613c45565b91505092915050565b600082601f830112613d7a57600080fd5b8135613d8a848260208601613c83565b91505092915050565b600081359050613da281615a5e565b92915050565b600060208284031215613dba57600080fd5b6000613dc884828501613cc1565b91505092915050565b60008060408385031215613de457600080fd5b6000613df285828601613cc1565b9250506020613e0385828601613cc1565b9150509250929050565b600080600060608486031215613e2257600080fd5b6000613e3086828701613cc1565b9350506020613e4186828701613cc1565b9250506040613e5286828701613d93565b9150509250925092565b60008060008060808587031215613e7257600080fd5b6000613e8087828801613cc1565b9450506020613e9187828801613cc1565b9350506040613ea287828801613d93565b925050606085013567ffffffffffffffff811115613ebf57600080fd5b613ecb87828801613d3f565b91505092959194509250565b60008060408385031215613eea57600080fd5b6000613ef885828601613cc1565b9250506020613f0985828601613ceb565b9150509250929050565b60008060408385031215613f2657600080fd5b6000613f3485828601613cc1565b9250506020613f4585828601613d93565b9150509250929050565b600060208284031215613f6157600080fd5b6000613f6f84828501613d00565b91505092915050565b60008060408385031215613f8b57600080fd5b6000613f9985828601613d00565b9250506020613faa85828601613cc1565b9150509250929050565b600060208284031215613fc657600080fd5b6000613fd484828501613d15565b91505092915050565b600060208284031215613fef57600080fd5b6000613ffd84828501613d2a565b91505092915050565b60006020828403121561401857600080fd5b600061402684828501613d93565b91505092915050565b60008060008060008060008060008060006101608c8e03121561405157600080fd5b600061405f8e828f01613d93565b9b505060206140708e828f01613d93565b9a505060406140818e828f01613d93565b99505060606140928e828f01613d93565b98505060806140a38e828f01613d93565b97505060a06140b48e828f01613d93565b96505060c06140c58e828f01613cd6565b95505060e06140d68e828f01613cd6565b9450506101006140e88e828f01613cd6565b9350506101208c013567ffffffffffffffff81111561410657600080fd5b6141128e828f01613d69565b9250506101408c013567ffffffffffffffff81111561413057600080fd5b61413c8e828f01613d69565b9150509295989b509295989b9093969950565b61415881614f0d565b82525050565b61416781614efb565b82525050565b61417681614f1f565b82525050565b61418581614f2b565b82525050565b600061419682614da3565b6141a08185614db9565b93506141b0818560208601614f9a565b6141b981615190565b840191505092915050565b60006141cf82614dae565b6141d98185614dca565b93506141e9818560208601614f9a565b6141f281615190565b840191505092915050565b600061420882614dae565b6142128185614ddb565b9350614222818560208601614f9a565b80840191505092915050565b600061423b602083614dca565b9150614246826151a1565b602082019050919050565b600061425e602083614dca565b9150614269826151ca565b602082019050919050565b6000614281601683614dca565b915061428c826151f3565b602082019050919050565b60006142a4602083614dca565b91506142af8261521c565b602082019050919050565b60006142c7602b83614dca565b91506142d282615245565b604082019050919050565b60006142ea603283614dca565b91506142f582615294565b604082019050919050565b600061430d602583614dca565b9150614318826152e3565b604082019050919050565b6000614330601c83614dca565b915061433b82615332565b602082019050919050565b6000614353602483614dca565b915061435e8261535b565b604082019050919050565b6000614376601983614dca565b9150614381826153aa565b602082019050919050565b6000614399601783614dca565b91506143a4826153d3565b602082019050919050565b60006143bc602c83614dca565b91506143c7826153fc565b604082019050919050565b60006143df601683614dca565b91506143ea8261544b565b602082019050919050565b6000614402603883614dca565b915061440d82615474565b604082019050919050565b6000614425602a83614dca565b9150614430826154c3565b604082019050919050565b6000614448602983614dca565b915061445382615512565b604082019050919050565b600061446b602e83614dca565b915061447682615561565b604082019050919050565b600061448e602083614dca565b9150614499826155b0565b602082019050919050565b60006144b1601183614dca565b91506144bc826155d9565b602082019050919050565b60006144d4602c83614dca565b91506144df82615602565b604082019050919050565b60006144f7602283614dca565b915061450282615651565b604082019050919050565b600061451a601583614dca565b9150614525826156a0565b602082019050919050565b600061453d602f83614dca565b9150614548826156c9565b604082019050919050565b6000614560601b83614dca565b915061456b82615718565b602082019050919050565b6000614583602183614dca565b915061458e82615741565b604082019050919050565b60006145a6601b83614dca565b91506145b182615790565b602082019050919050565b60006145c9603183614dca565b91506145d4826157b9565b604082019050919050565b60006145ec601c83614dca565b91506145f782615808565b602082019050919050565b600061460f602c83614dca565b915061461a82615831565b604082019050919050565b6000614632602b83614dca565b915061463d82615880565b604082019050919050565b6000614655601783614ddb565b9150614660826158cf565b601782019050919050565b6000614678601d83614dca565b9150614683826158f8565b602082019050919050565b600061469b601183614ddb565b91506146a682615921565b601182019050919050565b60006146be602f83614dca565b91506146c98261594a565b604082019050919050565b60006146e1601583614dca565b91506146ec82615999565b602082019050919050565b6000614704601a83614dca565b915061470f826159c2565b602082019050919050565b61472381614f81565b82525050565b600061473582856141fd565b915061474182846141fd565b91508190509392505050565b600061475882614648565b915061476482856141fd565b915061476f8261468e565b915061477b82846141fd565b91508190509392505050565b600060208201905061479c600083018461415e565b92915050565b60006020820190506147b7600083018461414f565b92915050565b60006080820190506147d2600083018761415e565b6147df602083018661415e565b6147ec604083018561471a565b81810360608301526147fe818461418b565b905095945050505050565b600060208201905061481e600083018461416d565b92915050565b6000602082019050614839600083018461417c565b92915050565b6000602082019050818103600083015261485981846141c4565b905092915050565b6000604082019050818103600083015261487b81856141c4565b905061488a602083018461415e565b9392505050565b600060408201905081810360008301526148ab81856141c4565b90506148ba602083018461416d565b9392505050565b600060208201905081810360008301526148da8161422e565b9050919050565b600060208201905081810360008301526148fa81614251565b9050919050565b6000602082019050818103600083015261491a81614274565b9050919050565b6000602082019050818103600083015261493a81614297565b9050919050565b6000602082019050818103600083015261495a816142ba565b9050919050565b6000602082019050818103600083015261497a816142dd565b9050919050565b6000602082019050818103600083015261499a81614300565b9050919050565b600060208201905081810360008301526149ba81614323565b9050919050565b600060208201905081810360008301526149da81614346565b9050919050565b600060208201905081810360008301526149fa81614369565b9050919050565b60006020820190508181036000830152614a1a8161438c565b9050919050565b60006020820190508181036000830152614a3a816143af565b9050919050565b60006020820190508181036000830152614a5a816143d2565b9050919050565b60006020820190508181036000830152614a7a816143f5565b9050919050565b60006020820190508181036000830152614a9a81614418565b9050919050565b60006020820190508181036000830152614aba8161443b565b9050919050565b60006020820190508181036000830152614ada8161445e565b9050919050565b60006020820190508181036000830152614afa81614481565b9050919050565b60006020820190508181036000830152614b1a816144a4565b9050919050565b60006020820190508181036000830152614b3a816144c7565b9050919050565b60006020820190508181036000830152614b5a816144ea565b9050919050565b60006020820190508181036000830152614b7a8161450d565b9050919050565b60006020820190508181036000830152614b9a81614530565b9050919050565b60006020820190508181036000830152614bba81614553565b9050919050565b60006020820190508181036000830152614bda81614576565b9050919050565b60006020820190508181036000830152614bfa81614599565b9050919050565b60006020820190508181036000830152614c1a816145bc565b9050919050565b60006020820190508181036000830152614c3a816145df565b9050919050565b60006020820190508181036000830152614c5a81614602565b9050919050565b60006020820190508181036000830152614c7a81614625565b9050919050565b60006020820190508181036000830152614c9a8161466b565b9050919050565b60006020820190508181036000830152614cba816146b1565b9050919050565b60006020820190508181036000830152614cda816146d4565b9050919050565b60006020820190508181036000830152614cfa816146f7565b9050919050565b6000602082019050614d16600083018461471a565b92915050565b6000614d26614d37565b9050614d328282615029565b919050565b6000604051905090565b600067ffffffffffffffff821115614d5c57614d5b615161565b5b614d6582615190565b9050602081019050919050565b600067ffffffffffffffff821115614d8d57614d8c615161565b5b614d9682615190565b9050602081019050919050565b600081519050919050565b600081519050919050565b600082825260208201905092915050565b600082825260208201905092915050565b600081905092915050565b6000614df182614f81565b9150614dfc83614f81565b9250827fffffffffffffffffffffffffffffffffffffffffffffffffffffffffffffffff03821115614e3157614e306150d4565b5b828201905092915050565b6000614e4782614f81565b9150614e5283614f81565b925082614e6257614e61615103565b5b828204905092915050565b6000614e7882614f81565b9150614e8383614f81565b9250817fffffffffffffffffffffffffffffffffffffffffffffffffffffffffffffffff0483118215151615614ebc57614ebb6150d4565b5b828202905092915050565b6000614ed282614f81565b9150614edd83614f81565b925082821015614ef057614eef6150d4565b5b828203905092915050565b6000614f0682614f61565b9050919050565b6000614f1882614f61565b9050919050565b60008115159050919050565b6000819050919050565b60007fffffffff0000000000000000000000000000000000000000000000000000000082169050919050565b600073ffffffffffffffffffffffffffffffffffffffff82169050919050565b6000819050919050565b82818337600083830152505050565b60005b83811015614fb8578082015181840152602081019050614f9d565b83811115614fc7576000848401525b50505050565b6000614fd882614f81565b91506000821415614fec57614feb6150d4565b5b600182039050919050565b6000600282049050600182168061500f57607f821691505b6020821081141561502357615022615132565b5b50919050565b61503282615190565b810181811067ffffffffffffffff8211171561505157615050615161565b5b80604052505050565b600061506582614f81565b91507fffffffffffffffffffffffffffffffffffffffffffffffffffffffffffffffff821415615098576150976150d4565b5b600182019050919050565b60006150ae82614f81565b91506150b983614f81565b9250826150c9576150c8615103565b5b828206905092915050565b7f4e487b7100000000000000000000000000000000000000000000000000000000600052601160045260246000fd5b7f4e487b7100000000000000000000000000000000000000000000000000000000600052601260045260246000fd5b7f4e487b7100000000000000000000000000000000000000000000000000000000600052602260045260246000fd5b7f4e487b7100000000000000000000000000000000000000000000000000000000600052604160045260246000fd5b6000601f19601f8301169050919050565b7f537472696e67733a20686578206c656e67746820696e73756666696369656e74600082015250565b7f6d696e74696e67206d6f7265207468616e20616c6c6f77656420616d6f756e74600082015250565b7f7374617274696e6720626c6f636b206e6f742073657400000000000000000000600082015250565b7f556e617574686f72697a656420746f2073657420656e64696e6720626c6f636b600082015250565b7f455243373231456e756d657261626c653a206f776e657220696e646578206f7560008201527f74206f6620626f756e6473000000000000000000000000000000000000000000602082015250565b7f4552433732313a207472616e7366657220746f206e6f6e20455243373231526560008201527f63656976657220696d706c656d656e7465720000000000000000000000000000602082015250565b7f4552433732313a207472616e736665722066726f6d20696e636f72726563742060008201527f6f776e6572000000000000000000000000000000000000000000000000000000602082015250565b7f4552433732313a20746f6b656e20616c7265616479206d696e74656400000000600082015250565b7f4552433732313a207472616e7366657220746f20746865207a65726f2061646460008201527f7265737300000000000000000000000000000000000000000000000000000000602082015250565b7f4552433732313a20617070726f766520746f2063616c6c657200000000000000600082015250565b7f6d696e74696e6720686173206e6f742073746172746564000000000000000000600082015250565b7f4552433732313a206f70657261746f7220717565727920666f72206e6f6e657860008201527f697374656e7420746f6b656e0000000000000000000000000000000000000000602082015250565b7f455243313136373a20637265617465206661696c656400000000000000000000600082015250565b7f4552433732313a20617070726f76652063616c6c6572206973206e6f74206f7760008201527f6e6572206e6f7220617070726f76656420666f7220616c6c0000000000000000602082015250565b7f4552433732313a2062616c616e636520717565727920666f7220746865207a6560008201527f726f206164647265737300000000000000000000000000000000000000000000602082015250565b7f4552433732313a206f776e657220717565727920666f72206e6f6e657869737460008201527f656e7420746f6b656e0000000000000000000000000000000000000000000000602082015250565b7f496e697469616c697a61626c653a20636f6e747261637420697320616c72656160008201527f647920696e697469616c697a6564000000000000000000000000000000000000602082015250565b7f4552433732313a206d696e7420746f20746865207a65726f2061646472657373600082015250565b7f6d696e74696e672068617320656e646564000000000000000000000000000000600082015250565b7f4552433732313a20617070726f76656420717565727920666f72206e6f6e657860008201527f697374656e7420746f6b656e0000000000000000000000000000000000000000602082015250565b7f556e617574686f72697a656420746f20736574207374617274696e6720626c6f60008201527f636b000000000000000000000000000000000000000000000000000000000000602082015250565b7f6e6f7420656e6f7567682065746865722073656e740000000000000000000000600082015250565b7f4552433732314d657461646174613a2055524920717565727920666f72206e6f60008201527f6e6578697374656e7420746f6b656e0000000000000000000000000000000000602082015250565b7f70757263686173652065786365656473206d617820737570706c790000000000600082015250565b7f4552433732313a20617070726f76616c20746f2063757272656e74206f776e6560008201527f7200000000000000000000000000000000000000000000000000000000000000602082015250565b7f656e64696e6720626c6f636b20697320616c7265616479207365740000000000600082015250565b7f4552433732313a207472616e736665722063616c6c6572206973206e6f74206f60008201527f776e6572206e6f7220617070726f766564000000000000000000000000000000602082015250565b7f556e617574686f72697a656420746f20637265617465206576656e7400000000600082015250565b7f455243373231456e756d657261626c653a20676c6f62616c20696e646578206f60008201527f7574206f6620626f756e64730000000000000000000000000000000000000000602082015250565b7f496e697469616c697a61626c653a20636f6e7472616374206973206e6f74206960008201527f6e697469616c697a696e67000000000000000000000000000000000000000000602082015250565b7f416363657373436f6e74726f6c3a206163636f756e7420000000000000000000600082015250565b7f7374617274696e6720626c6f636b20697320616c726561647920736574000000600082015250565b7f206973206d697373696e6720726f6c6520000000000000000000000000000000600082015250565b7f416363657373436f6e74726f6c3a2063616e206f6e6c792072656e6f756e636560008201527f20726f6c657320666f722073656c660000000000000000000000000000000000602082015250565b7f6d757374206d696e74206d6f7265207468616e20300000000000000000000000600082015250565b7f556e617574686f72697a656420746f207769746864726177616c000000000000600082015250565b6159f481614efb565b81146159ff57600080fd5b50565b615a0b81614f0d565b8114615a1657600080fd5b50565b615a2281614f1f565b8114615a2d57600080fd5b50565b615a3981614f2b565b8114615a4457600080fd5b50565b615a5081614f35565b8114615a5b57600080fd5b50565b615a6781614f81565b8114615a7257600080fd5b5056fea26469706673582212204d9430c69dfa0fb134abf547bb093dc3245983113a24124a64a734c891426a6664736f6c63430008040033",
  "linkReferences": {},
  "deployedLinkReferences": {}
}